{
  "_format": "hh-sol-artifact-1",
  "contractName": "NftCollection",
  "sourceName": "contracts/NftCollection.sol",
  "abi": [
    {
      "inputs": [
        {
          "internalType": "string",
          "name": "name_",
          "type": "string"
        },
        {
          "internalType": "string",
          "name": "symbol_",
          "type": "string"
        },
        {
          "internalType": "uint256",
          "name": "maxSupply_",
          "type": "uint256"
        },
        {
          "internalType": "string",
          "name": "baseURI_",
          "type": "string"
        }
      ],
      "stateMutability": "nonpayable",
      "type": "constructor"
    },
    {
      "inputs": [
        {
          "internalType": "address",
          "name": "sender",
          "type": "address"
        },
        {
          "internalType": "uint256",
          "name": "tokenId",
          "type": "uint256"
        },
        {
          "internalType": "address",
          "name": "owner",
          "type": "address"
        }
      ],
      "name": "ERC721IncorrectOwner",
      "type": "error"
    },
    {
      "inputs": [
        {
          "internalType": "address",
          "name": "operator",
          "type": "address"
        },
        {
          "internalType": "uint256",
          "name": "tokenId",
          "type": "uint256"
        }
      ],
      "name": "ERC721InsufficientApproval",
      "type": "error"
    },
    {
      "inputs": [
        {
          "internalType": "address",
          "name": "approver",
          "type": "address"
        }
      ],
      "name": "ERC721InvalidApprover",
      "type": "error"
    },
    {
      "inputs": [
        {
          "internalType": "address",
          "name": "operator",
          "type": "address"
        }
      ],
      "name": "ERC721InvalidOperator",
      "type": "error"
    },
    {
      "inputs": [
        {
          "internalType": "address",
          "name": "owner",
          "type": "address"
        }
      ],
      "name": "ERC721InvalidOwner",
      "type": "error"
    },
    {
      "inputs": [
        {
          "internalType": "address",
          "name": "receiver",
          "type": "address"
        }
      ],
      "name": "ERC721InvalidReceiver",
      "type": "error"
    },
    {
      "inputs": [
        {
          "internalType": "address",
          "name": "sender",
          "type": "address"
        }
      ],
      "name": "ERC721InvalidSender",
      "type": "error"
    },
    {
      "inputs": [
        {
          "internalType": "uint256",
          "name": "tokenId",
          "type": "uint256"
        }
      ],
      "name": "ERC721NonexistentToken",
      "type": "error"
    },
    {
      "inputs": [
        {
          "internalType": "address",
          "name": "owner",
          "type": "address"
        }
      ],
      "name": "OwnableInvalidOwner",
      "type": "error"
    },
    {
      "inputs": [
        {
          "internalType": "address",
          "name": "account",
          "type": "address"
        }
      ],
      "name": "OwnableUnauthorizedAccount",
      "type": "error"
    },
    {
      "anonymous": false,
      "inputs": [
        {
          "indexed": true,
          "internalType": "address",
          "name": "owner",
          "type": "address"
        },
        {
          "indexed": true,
          "internalType": "address",
          "name": "approved",
          "type": "address"
        },
        {
          "indexed": true,
          "internalType": "uint256",
          "name": "tokenId",
          "type": "uint256"
        }
      ],
      "name": "Approval",
      "type": "event"
    },
    {
      "anonymous": false,
      "inputs": [
        {
          "indexed": true,
          "internalType": "address",
          "name": "owner",
          "type": "address"
        },
        {
          "indexed": true,
          "internalType": "address",
          "name": "operator",
          "type": "address"
        },
        {
          "indexed": false,
          "internalType": "bool",
          "name": "approved",
          "type": "bool"
        }
      ],
      "name": "ApprovalForAll",
      "type": "event"
    },
    {
      "anonymous": false,
      "inputs": [
        {
          "indexed": true,
          "internalType": "address",
          "name": "previousOwner",
          "type": "address"
        },
        {
          "indexed": true,
          "internalType": "address",
          "name": "newOwner",
          "type": "address"
        }
      ],
      "name": "OwnershipTransferred",
      "type": "event"
    },
    {
      "anonymous": false,
      "inputs": [
        {
          "indexed": true,
          "internalType": "address",
          "name": "from",
          "type": "address"
        },
        {
          "indexed": true,
          "internalType": "address",
          "name": "to",
          "type": "address"
        },
        {
          "indexed": true,
          "internalType": "uint256",
          "name": "tokenId",
          "type": "uint256"
        }
      ],
      "name": "Transfer",
      "type": "event"
    },
    {
      "inputs": [
        {
          "internalType": "address",
          "name": "to",
          "type": "address"
        },
        {
          "internalType": "uint256",
          "name": "tokenId",
          "type": "uint256"
        }
      ],
      "name": "approve",
      "outputs": [],
      "stateMutability": "nonpayable",
      "type": "function"
    },
    {
      "inputs": [
        {
          "internalType": "address",
          "name": "owner",
          "type": "address"
        }
      ],
      "name": "balanceOf",
      "outputs": [
        {
          "internalType": "uint256",
          "name": "",
          "type": "uint256"
        }
      ],
      "stateMutability": "view",
      "type": "function"
    },
    {
      "inputs": [
        {
          "internalType": "uint256",
          "name": "tokenId",
          "type": "uint256"
        }
      ],
      "name": "getApproved",
      "outputs": [
        {
          "internalType": "address",
          "name": "",
          "type": "address"
        }
      ],
      "stateMutability": "view",
      "type": "function"
    },
    {
      "inputs": [
        {
          "internalType": "address",
          "name": "owner",
          "type": "address"
        },
        {
          "internalType": "address",
          "name": "operator",
          "type": "address"
        }
      ],
      "name": "isApprovedForAll",
      "outputs": [
        {
          "internalType": "bool",
          "name": "",
          "type": "bool"
        }
      ],
      "stateMutability": "view",
      "type": "function"
    },
    {
      "inputs": [],
      "name": "maxSupply",
      "outputs": [
        {
          "internalType": "uint256",
          "name": "",
          "type": "uint256"
        }
      ],
      "stateMutability": "view",
      "type": "function"
    },
    {
      "inputs": [],
      "name": "name",
      "outputs": [
        {
          "internalType": "string",
          "name": "",
          "type": "string"
        }
      ],
      "stateMutability": "view",
      "type": "function"
    },
    {
      "inputs": [],
      "name": "owner",
      "outputs": [
        {
          "internalType": "address",
          "name": "",
          "type": "address"
        }
      ],
      "stateMutability": "view",
      "type": "function"
    },
    {
      "inputs": [
        {
          "internalType": "uint256",
          "name": "tokenId",
          "type": "uint256"
        }
      ],
      "name": "ownerOf",
      "outputs": [
        {
          "internalType": "address",
          "name": "",
          "type": "address"
        }
      ],
      "stateMutability": "view",
      "type": "function"
    },
    {
      "inputs": [],
      "name": "renounceOwnership",
      "outputs": [],
      "stateMutability": "nonpayable",
      "type": "function"
    },
    {
      "inputs": [
        {
          "internalType": "address",
          "name": "to",
          "type": "address"
        },
        {
          "internalType": "uint256",
          "name": "tokenId",
          "type": "uint256"
        }
      ],
      "name": "safeMint",
      "outputs": [],
      "stateMutability": "nonpayable",
      "type": "function"
    },
    {
      "inputs": [
        {
          "internalType": "address",
          "name": "from",
          "type": "address"
        },
        {
          "internalType": "address",
          "name": "to",
          "type": "address"
        },
        {
          "internalType": "uint256",
          "name": "tokenId",
          "type": "uint256"
        }
      ],
      "name": "safeTransferFrom",
      "outputs": [],
      "stateMutability": "nonpayable",
      "type": "function"
    },
    {
      "inputs": [
        {
          "internalType": "address",
          "name": "from",
          "type": "address"
        },
        {
          "internalType": "address",
          "name": "to",
          "type": "address"
        },
        {
          "internalType": "uint256",
          "name": "tokenId",
          "type": "uint256"
        },
        {
          "internalType": "bytes",
          "name": "data",
          "type": "bytes"
        }
      ],
      "name": "safeTransferFrom",
      "outputs": [],
      "stateMutability": "nonpayable",
      "type": "function"
    },
    {
      "inputs": [
        {
          "internalType": "address",
          "name": "operator",
          "type": "address"
        },
        {
          "internalType": "bool",
          "name": "approved",
          "type": "bool"
        }
      ],
      "name": "setApprovalForAll",
      "outputs": [],
      "stateMutability": "nonpayable",
      "type": "function"
    },
    {
      "inputs": [
        {
          "internalType": "bytes4",
          "name": "interfaceId",
          "type": "bytes4"
        }
      ],
      "name": "supportsInterface",
      "outputs": [
        {
          "internalType": "bool",
          "name": "",
          "type": "bool"
        }
      ],
      "stateMutability": "view",
      "type": "function"
    },
    {
      "inputs": [],
      "name": "symbol",
      "outputs": [
        {
          "internalType": "string",
          "name": "",
          "type": "string"
        }
      ],
      "stateMutability": "view",
      "type": "function"
    },
    {
      "inputs": [
        {
          "internalType": "uint256",
          "name": "tokenId",
          "type": "uint256"
        }
      ],
      "name": "tokenURI",
      "outputs": [
        {
          "internalType": "string",
          "name": "",
          "type": "string"
        }
      ],
      "stateMutability": "view",
      "type": "function"
    },
    {
      "inputs": [],
      "name": "totalSupply",
      "outputs": [
        {
          "internalType": "uint256",
          "name": "",
          "type": "uint256"
        }
      ],
      "stateMutability": "view",
      "type": "function"
    },
    {
      "inputs": [
        {
          "internalType": "address",
          "name": "from",
          "type": "address"
        },
        {
          "internalType": "address",
          "name": "to",
          "type": "address"
        },
        {
          "internalType": "uint256",
          "name": "tokenId",
          "type": "uint256"
        }
      ],
      "name": "transferFrom",
      "outputs": [],
      "stateMutability": "nonpayable",
      "type": "function"
    },
    {
      "inputs": [
        {
          "internalType": "address",
          "name": "newOwner",
          "type": "address"
        }
      ],
      "name": "transferOwnership",
      "outputs": [],
      "stateMutability": "nonpayable",
      "type": "function"
    }
  ],
  "bytecode": "0x60806040523480156200001157600080fd5b5060405162002c7138038062002c7183398181016040528101906200003791906200039e565b33848481600090816200004b9190620006ae565b5080600190816200005d9190620006ae565b505050600073ffffffffffffffffffffffffffffffffffffffff168173ffffffffffffffffffffffffffffffffffffffff1603620000d55760006040517f1e4fbdf7000000000000000000000000000000000000000000000000000000008152600401620000cc9190620007da565b60405180910390fd5b620000e6816200010a60201b60201c565b50816007819055508060099081620000ff9190620006ae565b5050505050620007f7565b6000600660009054906101000a900473ffffffffffffffffffffffffffffffffffffffff16905081600660006101000a81548173ffffffffffffffffffffffffffffffffffffffff021916908373ffffffffffffffffffffffffffffffffffffffff1602179055508173ffffffffffffffffffffffffffffffffffffffff168173ffffffffffffffffffffffffffffffffffffffff167f8be0079c531659141344cd1fd0a4f28419497f9722a3daafe3b4186f6b6457e060405160405180910390a35050565b6000604051905090565b600080fd5b600080fd5b600080fd5b600080fd5b6000601f19601f8301169050919050565b7f4e487b7100000000000000000000000000000000000000000000000000000000600052604160045260246000fd5b6200023982620001ee565b810181811067ffffffffffffffff821117156200025b576200025a620001ff565b5b80604052505050565b600062000270620001d0565b90506200027e82826200022e565b919050565b600067ffffffffffffffff821115620002a157620002a0620001ff565b5b620002ac82620001ee565b9050602081019050919050565b60005b83811015620002d9578082015181840152602081019050620002bc565b60008484015250505050565b6000620002fc620002f68462000283565b62000264565b9050828152602081018484840111156200031b576200031a620001e9565b5b62000328848285620002b9565b509392505050565b600082601f830112620003485762000347620001e4565b5b81516200035a848260208601620002e5565b91505092915050565b6000819050919050565b620003788162000363565b81146200038457600080fd5b50565b60008151905062000398816200036d565b92915050565b60008060008060808587031215620003bb57620003ba620001da565b5b600085015167ffffffffffffffff811115620003dc57620003db620001df565b5b620003ea8782880162000330565b945050602085015167ffffffffffffffff8111156200040e576200040d620001df565b5b6200041c8782880162000330565b93505060406200042f8782880162000387565b925050606085015167ffffffffffffffff811115620004535762000452620001df565b5b620004618782880162000330565b91505092959194509250565b600081519050919050565b7f4e487b7100000000000000000000000000000000000000000000000000000000600052602260045260246000fd5b60006002820490506001821680620004c057607f821691505b602082108103620004d657620004d562000478565b5b50919050565b60008190508160005260206000209050919050565b60006020601f8301049050919050565b600082821b905092915050565b600060088302620005407fffffffffffffffffffffffffffffffffffffffffffffffffffffffffffffffff8262000501565b6200054c868362000501565b95508019841693508086168417925050509392505050565b6000819050919050565b60006200058f62000589620005838462000363565b62000564565b62000363565b9050919050565b6000819050919050565b620005ab836200056e565b620005c3620005ba8262000596565b8484546200050e565b825550505050565b600090565b620005da620005cb565b620005e7818484620005a0565b505050565b5b818110156200060f5762000603600082620005d0565b600181019050620005ed565b5050565b601f8211156200065e576200062881620004dc565b6200063384620004f1565b8101602085101562000643578190505b6200065b6200065285620004f1565b830182620005ec565b50505b505050565b600082821c905092915050565b6000620006836000198460080262000663565b1980831691505092915050565b60006200069e838362000670565b9150826002028217905092915050565b620006b9826200046d565b67ffffffffffffffff811115620006d557620006d4620001ff565b5b620006e18254620004a7565b620006ee82828562000613565b600060209050601f83116001811462000726576000841562000711578287015190505b6200071d858262000690565b8655506200078d565b601f1984166200073686620004dc565b60005b82811015620007605784890151825560018201915060208501945060208101905062000739565b868310156200078057848901516200077c601f89168262000670565b8355505b6001600288020188555050505b505050505050565b600073ffffffffffffffffffffffffffffffffffffffff82169050919050565b6000620007c28262000795565b9050919050565b620007d481620007b5565b82525050565b6000602082019050620007f16000830184620007c9565b92915050565b61246a80620008076000396000f3fe608060405234801561001057600080fd5b50600436106101215760003560e01c8063715018a6116100ad578063b88d4fde11610071578063b88d4fde146102f4578063c87b56dd14610310578063d5abeb0114610340578063e985e9c51461035e578063f2fde38b1461038e57610121565b8063715018a6146102765780638da5cb5b1461028057806395d89b411461029e578063a1448194146102bc578063a22cb465146102d857610121565b806318160ddd116100f457806318160ddd146101c057806323b872dd146101de57806342842e0e146101fa5780636352211e1461021657806370a082311461024657610121565b806301ffc9a71461012657806306fdde0314610156578063081812fc14610174578063095ea7b3146101a4575b600080fd5b610140600480360381019061013b9190611af9565b6103aa565b60405161014d9190611b41565b60405180910390f35b61015e61048c565b60405161016b9190611bec565b60405180910390f35b61018e60048036038101906101899190611c44565b61051e565b60405161019b9190611cb2565b60405180910390f35b6101be60048036038101906101b99190611cf9565b61053a565b005b6101c8610550565b6040516101d59190611d48565b60405180910390f35b6101f860048036038101906101f39190611d63565b610556565b005b610214600480360381019061020f9190611d63565b610658565b005b610230600480360381019061022b9190611c44565b610678565b60405161023d9190611cb2565b60405180910390f35b610260600480360381019061025b9190611db6565b61068a565b60405161026d9190611d48565b60405180910390f35b61027e610744565b005b610288610758565b6040516102959190611cb2565b60405180910390f35b6102a6610782565b6040516102b39190611bec565b60405180910390f35b6102d660048036038101906102d19190611cf9565b610814565b005b6102f260048036038101906102ed9190611e0f565b610984565b005b61030e60048036038101906103099190611f84565b61099a565b005b61032a60048036038101906103259190611c44565b6109bf565b6040516103379190611bec565b60405180910390f35b610348610a28565b6040516103559190611d48565b60405180910390f35b61037860048036038101906103739190612007565b610a2e565b6040516103859190611b41565b60405180910390f35b6103a860048036038101906103a39190611db6565b610ac2565b005b60007f80ac58cd000000000000000000000000000000000000000000000000000000007bffffffffffffffffffffffffffffffffffffffffffffffffffffffff1916827bffffffffffffffffffffffffffffffffffffffffffffffffffffffff1916148061047557507f5b5e139f000000000000000000000000000000000000000000000000000000007bffffffffffffffffffffffffffffffffffffffffffffffffffffffff1916827bffffffffffffffffffffffffffffffffffffffffffffffffffffffff1916145b80610485575061048482610b48565b5b9050919050565b60606000805461049b90612076565b80601f01602080910402602001604051908101604052809291908181526020018280546104c790612076565b80156105145780601f106104e957610100808354040283529160200191610514565b820191906000526020600020905b8154815290600101906020018083116104f757829003601f168201915b5050505050905090565b600061052982610bb2565b5061053382610c3a565b9050919050565b61054c8282610547610c77565b610c7f565b5050565b60085481565b600073ffffffffffffffffffffffffffffffffffffffff168273ffffffffffffffffffffffffffffffffffffffff16036105c85760006040517f64a0ae920000000000000000000000000000000000000000000000000000000081526004016105bf9190611cb2565b60405180910390fd5b60006105dc83836105d7610c77565b610c91565b90508373ffffffffffffffffffffffffffffffffffffffff168173ffffffffffffffffffffffffffffffffffffffff1614610652578382826040517f64283d7b000000000000000000000000000000000000000000000000000000008152600401610649939291906120a7565b60405180910390fd5b50505050565b6106738383836040518060200160405280600081525061099a565b505050565b600061068382610bb2565b9050919050565b60008073ffffffffffffffffffffffffffffffffffffffff168273ffffffffffffffffffffffffffffffffffffffff16036106fd5760006040517f89c62b640000000000000000000000000000000000000000000000000000000081526004016106f49190611cb2565b60405180910390fd5b600360008373ffffffffffffffffffffffffffffffffffffffff1673ffffffffffffffffffffffffffffffffffffffff168152602001908152602001600020549050919050565b61074c610eab565b6107566000610f32565b565b6000600660009054906101000a900473ffffffffffffffffffffffffffffffffffffffff16905090565b60606001805461079190612076565b80601f01602080910402602001604051908101604052809291908181526020018280546107bd90612076565b801561080a5780601f106107df5761010080835404028352916020019161080a565b820191906000526020600020905b8154815290600101906020018083116107ed57829003601f168201915b5050505050905090565b61081c610eab565b600073ffffffffffffffffffffffffffffffffffffffff168273ffffffffffffffffffffffffffffffffffffffff160361088b576040517f08c379a00000000000000000000000000000000000000000000000000000000081526004016108829061212a565b60405180910390fd5b600a600082815260200190815260200160002060009054906101000a900460ff16156108ec576040517f08c379a00000000000000000000000000000000000000000000000000000000081526004016108e390612196565b60405180910390fd5b60075460085410610932576040517f08c379a000000000000000000000000000000000000000000000000000000000815260040161092990612202565b60405180910390fd5b6001600a600083815260200190815260200160002060006101000a81548160ff0219169083151502179055506008600081548092919061097190612251565b91905055506109808282610ff8565b5050565b61099661098f610c77565b8383611016565b5050565b6109a5848484610556565b6109b96109b0610c77565b85858585611185565b50505050565b60606109ca82610bb2565b5060006109d5611336565b905060008151116109f55760405180602001604052806000815250610a20565b806109ff846113c8565b604051602001610a109291906122d5565b6040516020818303038152906040525b915050919050565b60075481565b6000600560008473ffffffffffffffffffffffffffffffffffffffff1673ffffffffffffffffffffffffffffffffffffffff16815260200190815260200160002060008373ffffffffffffffffffffffffffffffffffffffff1673ffffffffffffffffffffffffffffffffffffffff16815260200190815260200160002060009054906101000a900460ff16905092915050565b610aca610eab565b600073ffffffffffffffffffffffffffffffffffffffff168173ffffffffffffffffffffffffffffffffffffffff1603610b3c5760006040517f1e4fbdf7000000000000000000000000000000000000000000000000000000008152600401610b339190611cb2565b60405180910390fd5b610b4581610f32565b50565b60007f01ffc9a7000000000000000000000000000000000000000000000000000000007bffffffffffffffffffffffffffffffffffffffffffffffffffffffff1916827bffffffffffffffffffffffffffffffffffffffffffffffffffffffff1916149050919050565b600080610bbe83611496565b9050600073ffffffffffffffffffffffffffffffffffffffff168173ffffffffffffffffffffffffffffffffffffffff1603610c3157826040517f7e273289000000000000000000000000000000000000000000000000000000008152600401610c289190611d48565b60405180910390fd5b80915050919050565b60006004600083815260200190815260200160002060009054906101000a900473ffffffffffffffffffffffffffffffffffffffff169050919050565b600033905090565b610c8c83838360016114d3565b505050565b600080610c9d84611496565b9050600073ffffffffffffffffffffffffffffffffffffffff168373ffffffffffffffffffffffffffffffffffffffff1614610cdf57610cde818486611698565b5b600073ffffffffffffffffffffffffffffffffffffffff168173ffffffffffffffffffffffffffffffffffffffff1614610d7057610d216000856000806114d3565b6001600360008373ffffffffffffffffffffffffffffffffffffffff1673ffffffffffffffffffffffffffffffffffffffff168152602001908152602001600020600082825403925050819055505b600073ffffffffffffffffffffffffffffffffffffffff168573ffffffffffffffffffffffffffffffffffffffff1614610df3576001600360008773ffffffffffffffffffffffffffffffffffffffff1673ffffffffffffffffffffffffffffffffffffffff168152602001908152602001600020600082825401925050819055505b846002600086815260200190815260200160002060006101000a81548173ffffffffffffffffffffffffffffffffffffffff021916908373ffffffffffffffffffffffffffffffffffffffff160217905550838573ffffffffffffffffffffffffffffffffffffffff168273ffffffffffffffffffffffffffffffffffffffff167fddf252ad1be2c89b69c2b068fc378daa952ba7f163c4a11628f55a4df523b3ef60405160405180910390a4809150509392505050565b610eb3610c77565b73ffffffffffffffffffffffffffffffffffffffff16610ed1610758565b73ffffffffffffffffffffffffffffffffffffffff1614610f3057610ef4610c77565b6040517f118cdaa7000000000000000000000000000000000000000000000000000000008152600401610f279190611cb2565b60405180910390fd5b565b6000600660009054906101000a900473ffffffffffffffffffffffffffffffffffffffff16905081600660006101000a81548173ffffffffffffffffffffffffffffffffffffffff021916908373ffffffffffffffffffffffffffffffffffffffff1602179055508173ffffffffffffffffffffffffffffffffffffffff168173ffffffffffffffffffffffffffffffffffffffff167f8be0079c531659141344cd1fd0a4f28419497f9722a3daafe3b4186f6b6457e060405160405180910390a35050565b61101282826040518060200160405280600081525061175c565b5050565b600073ffffffffffffffffffffffffffffffffffffffff168273ffffffffffffffffffffffffffffffffffffffff160361108757816040517f5b08ba1800000000000000000000000000000000000000000000000000000000815260040161107e9190611cb2565b60405180910390fd5b80600560008573ffffffffffffffffffffffffffffffffffffffff1673ffffffffffffffffffffffffffffffffffffffff16815260200190815260200160002060008473ffffffffffffffffffffffffffffffffffffffff1673ffffffffffffffffffffffffffffffffffffffff16815260200190815260200160002060006101000a81548160ff0219169083151502179055508173ffffffffffffffffffffffffffffffffffffffff168373ffffffffffffffffffffffffffffffffffffffff167f17307eab39ab6107e8899845ad3d59bd9653f200f220920489ca2b5937696c31836040516111789190611b41565b60405180910390a3505050565b60008373ffffffffffffffffffffffffffffffffffffffff163b111561132f578273ffffffffffffffffffffffffffffffffffffffff1663150b7a02868685856040518563ffffffff1660e01b81526004016111e4949392919061234e565b6020604051808303816000875af192505050801561122057506040513d601f19601f8201168201806040525081019061121d91906123af565b60015b6112a4573d8060008114611250576040519150601f19603f3d011682016040523d82523d6000602084013e611255565b606091505b50600081510361129c57836040517f64a0ae920000000000000000000000000000000000000000000000000000000081526004016112939190611cb2565b60405180910390fd5b805160208201fd5b63150b7a0260e01b7bffffffffffffffffffffffffffffffffffffffffffffffffffffffff1916817bffffffffffffffffffffffffffffffffffffffffffffffffffffffff19161461132d57836040517f64a0ae920000000000000000000000000000000000000000000000000000000081526004016113249190611cb2565b60405180910390fd5b505b5050505050565b60606009805461134590612076565b80601f016020809104026020016040519081016040528092919081815260200182805461137190612076565b80156113be5780601f10611393576101008083540402835291602001916113be565b820191906000526020600020905b8154815290600101906020018083116113a157829003601f168201915b5050505050905090565b6060600060016113d784611780565b01905060008167ffffffffffffffff8111156113f6576113f5611e59565b5b6040519080825280601f01601f1916602001820160405280156114285781602001600182028036833780820191505090505b509050600082602083010190505b60011561148b578080600190039150507f3031323334353637383961626364656600000000000000000000000000000000600a86061a8153600a858161147f5761147e6123dc565b5b04945060008503611436575b819350505050919050565b60006002600083815260200190815260200160002060009054906101000a900473ffffffffffffffffffffffffffffffffffffffff169050919050565b808061150c5750600073ffffffffffffffffffffffffffffffffffffffff168273ffffffffffffffffffffffffffffffffffffffff1614155b1561164057600061151c84610bb2565b9050600073ffffffffffffffffffffffffffffffffffffffff168373ffffffffffffffffffffffffffffffffffffffff161415801561158757508273ffffffffffffffffffffffffffffffffffffffff168173ffffffffffffffffffffffffffffffffffffffff1614155b801561159a57506115988184610a2e565b155b156115dc57826040517fa9fbf51f0000000000000000000000000000000000000000000000000000000081526004016115d39190611cb2565b60405180910390fd5b811561163e57838573ffffffffffffffffffffffffffffffffffffffff168273ffffffffffffffffffffffffffffffffffffffff167f8c5be1e5ebec7d5bd14f71427d1e84f3dd0314c0f7b2291e5b200ac8c7c3b92560405160405180910390a45b505b836004600085815260200190815260200160002060006101000a81548173ffffffffffffffffffffffffffffffffffffffff021916908373ffffffffffffffffffffffffffffffffffffffff16021790555050505050565b6116a38383836118d3565b61175757600073ffffffffffffffffffffffffffffffffffffffff168373ffffffffffffffffffffffffffffffffffffffff160361171857806040517f7e27328900000000000000000000000000000000000000000000000000000000815260040161170f9190611d48565b60405180910390fd5b81816040517f177e802f00000000000000000000000000000000000000000000000000000000815260040161174e92919061240b565b60405180910390fd5b505050565b6117668383611994565b61177b611771610c77565b6000858585611185565b505050565b600080600090507a184f03e93ff9f4daa797ed6e38ed64bf6a1f01000000000000000083106117de577a184f03e93ff9f4daa797ed6e38ed64bf6a1f01000000000000000083816117d4576117d36123dc565b5b0492506040810190505b6d04ee2d6d415b85acef8100000000831061181b576d04ee2d6d415b85acef81000000008381611811576118106123dc565b5b0492506020810190505b662386f26fc10000831061184a57662386f26fc1000083816118405761183f6123dc565b5b0492506010810190505b6305f5e1008310611873576305f5e1008381611869576118686123dc565b5b0492506008810190505b612710831061189857612710838161188e5761188d6123dc565b5b0492506004810190505b606483106118bb57606483816118b1576118b06123dc565b5b0492506002810190505b600a83106118ca576001810190505b80915050919050565b60008073ffffffffffffffffffffffffffffffffffffffff168373ffffffffffffffffffffffffffffffffffffffff161415801561198b57508273ffffffffffffffffffffffffffffffffffffffff168473ffffffffffffffffffffffffffffffffffffffff16148061194c575061194b8484610a2e565b5b8061198a57508273ffffffffffffffffffffffffffffffffffffffff1661197283610c3a565b73ffffffffffffffffffffffffffffffffffffffff16145b5b90509392505050565b600073ffffffffffffffffffffffffffffffffffffffff168273ffffffffffffffffffffffffffffffffffffffff1603611a065760006040517f64a0ae920000000000000000000000000000000000000000000000000000000081526004016119fd9190611cb2565b60405180910390fd5b6000611a1483836000610c91565b9050600073ffffffffffffffffffffffffffffffffffffffff168173ffffffffffffffffffffffffffffffffffffffff1614611a885760006040517f73c6ac6e000000000000000000000000000000000000000000000000000000008152600401611a7f9190611cb2565b60405180910390fd5b505050565b6000604051905090565b600080fd5b600080fd5b60007fffffffff0000000000000000000000000000000000000000000000000000000082169050919050565b611ad681611aa1565b8114611ae157600080fd5b50565b600081359050611af381611acd565b92915050565b600060208284031215611b0f57611b0e611a97565b5b6000611b1d84828501611ae4565b91505092915050565b60008115159050919050565b611b3b81611b26565b82525050565b6000602082019050611b566000830184611b32565b92915050565b600081519050919050565b600082825260208201905092915050565b60005b83811015611b96578082015181840152602081019050611b7b565b60008484015250505050565b6000601f19601f8301169050919050565b6000611bbe82611b5c565b611bc88185611b67565b9350611bd8818560208601611b78565b611be181611ba2565b840191505092915050565b60006020820190508181036000830152611c068184611bb3565b905092915050565b6000819050919050565b611c2181611c0e565b8114611c2c57600080fd5b50565b600081359050611c3e81611c18565b92915050565b600060208284031215611c5a57611c59611a97565b5b6000611c6884828501611c2f565b91505092915050565b600073ffffffffffffffffffffffffffffffffffffffff82169050919050565b6000611c9c82611c71565b9050919050565b611cac81611c91565b82525050565b6000602082019050611cc76000830184611ca3565b92915050565b611cd681611c91565b8114611ce157600080fd5b50565b600081359050611cf381611ccd565b92915050565b60008060408385031215611d1057611d0f611a97565b5b6000611d1e85828601611ce4565b9250506020611d2f85828601611c2f565b9150509250929050565b611d4281611c0e565b82525050565b6000602082019050611d5d6000830184611d39565b92915050565b600080600060608486031215611d7c57611d7b611a97565b5b6000611d8a86828701611ce4565b9350506020611d9b86828701611ce4565b9250506040611dac86828701611c2f565b9150509250925092565b600060208284031215611dcc57611dcb611a97565b5b6000611dda84828501611ce4565b91505092915050565b611dec81611b26565b8114611df757600080fd5b50565b600081359050611e0981611de3565b92915050565b60008060408385031215611e2657611e25611a97565b5b6000611e3485828601611ce4565b9250506020611e4585828601611dfa565b9150509250929050565b600080fd5b600080fd5b7f4e487b7100000000000000000000000000000000000000000000000000000000600052604160045260246000fd5b611e9182611ba2565b810181811067ffffffffffffffff82111715611eb057611eaf611e59565b5b80604052505050565b6000611ec3611a8d565b9050611ecf8282611e88565b919050565b600067ffffffffffffffff821115611eef57611eee611e59565b5b611ef882611ba2565b9050602081019050919050565b82818337600083830152505050565b6000611f27611f2284611ed4565b611eb9565b905082815260208101848484011115611f4357611f42611e54565b5b611f4e848285611f05565b509392505050565b600082601f830112611f6b57611f6a611e4f565b5b8135611f7b848260208601611f14565b91505092915050565b60008060008060808587031215611f9e57611f9d611a97565b5b6000611fac87828801611ce4565b9450506020611fbd87828801611ce4565b9350506040611fce87828801611c2f565b925050606085013567ffffffffffffffff811115611fef57611fee611a9c565b5b611ffb87828801611f56565b91505092959194509250565b6000806040838503121561201e5761201d611a97565b5b600061202c85828601611ce4565b925050602061203d85828601611ce4565b9150509250929050565b7f4e487b7100000000000000000000000000000000000000000000000000000000600052602260045260246000fd5b6000600282049050600182168061208e57607f821691505b6020821081036120a1576120a0612047565b5b50919050565b60006060820190506120bc6000830186611ca3565b6120c96020830185611d39565b6120d66040830184611ca3565b949350505050565b7f5a65726f20616464726573730000000000000000000000000000000000000000600082015250565b6000612114600c83611b67565b915061211f826120de565b602082019050919050565b6000602082019050818103600083015261214381612107565b9050919050565b7f416c7265616479206d696e746564000000000000000000000000000000000000600082015250565b6000612180600e83611b67565b915061218b8261214a565b602082019050919050565b600060208201905081810360008301526121af81612173565b9050919050565b7f4d617820737570706c7920726561636865640000000000000000000000000000600082015250565b60006121ec601283611b67565b91506121f7826121b6565b602082019050919050565b6000602082019050818103600083015261221b816121df565b9050919050565b7f4e487b7100000000000000000000000000000000000000000000000000000000600052601160045260246000fd5b600061225c82611c0e565b91507fffffffffffffffffffffffffffffffffffffffffffffffffffffffffffffffff820361228e5761228d612222565b5b600182019050919050565b600081905092915050565b60006122af82611b5c565b6122b98185612299565b93506122c9818560208601611b78565b80840191505092915050565b60006122e182856122a4565b91506122ed82846122a4565b91508190509392505050565b600081519050919050565b600082825260208201905092915050565b6000612320826122f9565b61232a8185612304565b935061233a818560208601611b78565b61234381611ba2565b840191505092915050565b60006080820190506123636000830187611ca3565b6123706020830186611ca3565b61237d6040830185611d39565b818103606083015261238f8184612315565b905095945050505050565b6000815190506123a981611acd565b92915050565b6000602082840312156123c5576123c4611a97565b5b60006123d38482850161239a565b91505092915050565b7f4e487b7100000000000000000000000000000000000000000000000000000000600052601260045260246000fd5b60006040820190506124206000830185611ca3565b61242d6020830184611d39565b939250505056fea26469706673582212209b4bfb71a66fef5fe17565bcd96a60792be02083fa95aaf5fe6c75379988ae8664736f6c63430008140033",
  "linkReferences": {},
  "deployedLinkReferences": {}
}